:100000000C9446000C9466000C9466000C946600F8
:100010000C9466000C9466000C9466000C946600C8
:100020000C9466000C9466000C9466000C946600B8
:100030000C9466000C9466000C9466000C94A4006A
:100040000C9466000C9466000C9466000C94660098
:100050000C9466000C9466000C9466000C94660088
:100060000C9466000C9466000C9466000C94660078
:100070000C9466000C9466000C9466000C94660068
:100080000C9466000C9466000C94660011241FBE4C
:10009000CFEFD0E1DEBFCDBF11E0A0E0B1E0E2E6FE
:1000A000F4E000E00BBF02C007900D92A430B1074E
:1000B000D9F71BBE11E0A4E0B1E001C01D92A93345
:1000C000B107E1F70E9401020C942F020C9400008A
:1000D00020E030E0F901E75FFE4F8083F901E65F41
:1000E000FE4F6083F901E55FFE4F40832D5F3F4F78
:1000F0002033310579F7089580E090E0FC01E75F57
:10010000FE4F1082019680339105C1F7089520E0DB
:1001100030E008C0EFECF7E03197F1F700C00000E5
:100120002F5F3F4F28173907ACF308958FEF8ABB35
:1001300084BB81BB83E0809361008CE083BF82E05D
:1001400087BF80E881BF08951F920F920FB60F926C
:100150000BB60F9211242F933F938F939F93EF939E
:10016000FF931BBA15BA12BA809162008C7F8093FC
:10017000620010920801109207011092060180910E
:100180000001869580930001809100018823E9F4A5
:1001900080E880930001809105018F5F80930501C5
:1001A0008091010190910201489690930201809301
:1001B000010180910501823040F01092050189E033
:1001C00091E09093020180930101E0910101F0918F
:1001D0000201808190910001892329F0809107011B
:1001E000806480930701818190910001892329F027
:1001F00080910701806280930701828190910001C4
:10020000892329F080910701806180930701838110
:1002100090910001892329F08091080180648093E6
:100220000801848190910001892329F080910801BF
:10023000806880930801858190910001892329F0CD
:100240008091070180688093070186819091000169
:10025000892329F0809108018160809308018781BA
:1002600090910001892329F0809108018260809398
:100270000801808590910001892329F0809108016F
:10028000846080930801818590910001892329F081
:100290008091080188608093080182859091000117
:1002A000892329F08091080180618093080183856A
:1002B00090910001892329F0809108018062809348
:1002C0000801848590910001892329F0809107011C
:1002D000886080930701858590910001892329F02A
:1002E00080910701846080930701868590910001C9
:1002F000892329F080910701826080930701878517
:1003000090910001892329F08091070181608093F9
:100310000701808990910001892329F080910601CD
:10032000806880930601818990910001892329F0DA
:10033000809106018064809306018289909100017A
:10034000892329F0809106018460809306018389C6
:1003500090910001892329F08091060182608093A9
:100360000601848990910001892329F0809106017A
:10037000816080930601858990910001892329F08D
:100380008091060188608093060186899091000122
:10039000892329F080910601806180930601878975
:1003A00090910001892329F0809106018062809359
:1003B0000601809108018BBB8091070185BB80916C
:1003C000060182BB209162003091050181E090E03E
:1003D00002C0880F991F3A95E2F7282B20936200FC
:1003E0008091000181BF12BEFF91EF919F918F918B
:1003F0003F912F910F900BBE0F900FBE0F901F904B
:1004000018950E94960078940E947C008FEF90E0EF
:1004100060E070E040E050E00E94680088EE93E009
:100420000E9487000E947C0080E090E06FEF70E007
:1004300040E050E00E94680088EE93E00E94870050
:100440000E947C0080E090E060E070E04FEF50E0C0
:100450000E94680088EE93E00E948700D5CFF89450
:02046000FFCFCC
:04046200800901000C
:00000001FF
