S00D00004454496D702E7372656359
S11300000C9446000C9466000C9466000C946600F4
S11300100C9466000C9466000C9466000C946600C4
S11300200C9466000C9466000C9466000C946600B4
S11300300C9466000C9466000C9466000C94DC002E
S11300400C9466000C9466000C9466000C94660094
S11300500C9466000C9466000C9466000C94660084
S11300600C9466000C9466000C9466000C94660074
S11300700C9466000C9466000C9466000C94660064
S11300800C9466000C9466000C94660011241FBE48
S1130090CFEFD0E1DEBFCDBF11E0A0E0B1E0E6E8F4
S11300A0F4E000E00BBF02C007900D92A430B1074A
S11300B0D9F71BBE11E0A4E0B1E001C01D92A93341
S11300C0B107E1F70E94AC000C9441020C940000CB
S11300D0582F80E090E029E031E0F901E80FF91FA2
S11300E05083FC013196E20FF31F6083FC013296CA
S11300F0E20FF31F408303968033910571F708954F
S113010080E090E029E031E0F901E80FF91F108266
S1130110019680339105C1F70895181619066CF4F9
S113012020E030E0EFECF7E03197F1F700C0000099
S11301302F5F3F4F28173907A9F708958FEF8ABB20
S113014084BB81BB83E0809361008CE083BF82E049
S113015087BF80E881BF08950E949E0078940E9422
S113016080008FEF90E060E070E040E050E00E949B
S1130170680088EE93E00E948D000E94800080E079
S113018090E06FEF70E040E050E00E94680088EE7D
S113019093E00E948D000E94800080E090E060E087
S11301A070E04FEF50E00E94680088EE93E00E94F8
S11301B08D000E948000D5CF1F920F920FB60F9230
S11301C00BB60F9211242F933F934F936F937F930A
S11301D08F939F93EF93FF931BBA15BA12BAE2E67B
S11301E0F0E080818C7F80831092080110920701D7
S11301F01092060180910001869580930001809100
S113020000018823E9F480E88093000180910501CE
S11302108F5F8093050180910101909102014896BE
S1130220909302018093010180910501823040F096
S11302301092050189E091E09093020180930101FD
S1130240E0910101F09102019081809100018923E4
S113025029F0809107018064809307019181809146
S11302600001892329F080910701806280930701AE
S1130270928180910001892329F080910701806196
S113028080930701938180910001892329F0809153
S1130290080180648093080194818091000189237E
S11302A029F08091080180688093080195818091EC
S11302B00001892329F08091070180688093070158
S11302C0968180910001892329F080910801816041
S11302D080930801978180910001892329F08091FE
S11302E00801826080930801908580910001892330
S11302F029F08091080184608093080191858091A0
S11303000001892329F08091080188608093080105
S1130310928580910001892329F0809108018061F0
S113032080930801938580910001892329F08091AD
S113033008018062809308019485809100018923DB
S113034029F0809107018860809307019585809149
S11303500001892329F080910701846080930701BB
S1130360968580910001892329F08091070182609C
S113037080930701978580910001892329F080915A
S1130380070181608093070190898091000189238E
S113039029F08091060180688093060191898091FB
S11303A00001892329F0809106018064809306016D
S11303B0928980910001892329F08091060184604B
S11303C080930601938980910001892329F080910B
S11303D0060182608093060194898091000189233B
S11303E029F08091060181608093060195898091AE
S11303F00001892329F08091060188608093060119
S1130400968980910001892329F0809106018061F9
S113041080930601978980910001892329F08091B6
S11304200601806280930601809108018BBB809154
S1130430070185BB8091060182BBE2E6F0E04081C2
S11304408091050121E030E0B90102C0660F771FF9
S11304508A95E2F7CB01842B80838091000181BFD0
S113046012BEFF91EF919F918F917F916F914F9168
S11304703F912F910F900BBE0F900FBE0F901F90C6
S10904801895F894FFCF6B
S107048680090100E4
S9030000FC
